:100000000C9434000C9451000C9451000C94510049
:100010000C9451000C9451000C9451000C9451001C
:100020000C9451000C9451000C9451000C948D05CB
:100030000C9451000C9451000C9451000C945100FC
:100040000C9451000C9451000C9451000C945100EC
:100050000C9451000C9451000C9451000C945100DC
:100060000C9451000C94510011241FBECFEFD8E026
:10007000DEBFCDBF11E0A0E0B1E0E8EEF1E102C0EB
:1000800005900D92AA33B107D9F721E0AAE3B1E0B8
:1000900001C01D92A536B207E1F70E94E2020C945E
:1000A000F2080C940000EF92FF920F931F93CF93EE
:1000B000DF9300D000D0CDB7DEB79A8389837C83ED
:1000C0006B8389819A81FC01248135814681578126
:1000D00089819A81FC016081718189819A81FC0109
:1000E0008381882F90E0880F991F860F971FFC014E
:1000F00080819181CC01A0E0B0E079018A01E81A09
:10010000F90A0A0B1B0BD801C70129813A81F901B1
:1001100084839583A683B78389819A81FC0120819A
:10012000318189819A81FC018381882F90E0880F39
:10013000991F820F931F2B813C81FC013183208307
:1001400089819A81FC0124813581468157818B8187
:100150009C81CC01A0E0B0E0820F931FA41FB51FCB
:1001600029813A81F90184839583A683B7838981A4
:100170009A81FC01838121E0280F89819A81FC0109
:10018000238389819A81FC01238189819A81FC01E1
:100190008281281720F089819A81FC011382000056
:1001A0000F900F900F900F90DF91CF911F910F91B3
:1001B000FF90EF900895CF93DF9300D0CDB7DEB7D7
:1001C0009A83898389819A81FC01248135814681C2
:1001D000578189819A81FC0182818695882F90E0E0
:1001E000A0E0B0E0820F931FA41FB51F29813A81C0
:1001F000F9012281222F30E040E050E0BC01CD0126
:100200000E949008DA01C9010F900F90DF91CF9101
:100210000895CF93DF93CDB7DEB728970FB6F89444
:10022000DEBF0FBECDBF6D837E838F83988720E0B6
:1002300030E040E854E46D817E818F8198850E9492
:100240002308DC01CB0120E030E040EA50E4BC01AF
:10025000CD010E94C406DC01CB0189839A83AB8364
:10026000BC8320E030E0A90169817A818B819C8187
:100270000E94BF06882324F419821A821B821C82E2
:1002800020E030EC4FE754E469817A818B819C81D6
:100290000E941E08181644F480E090ECAFE7B4E426
:1002A00089839A83AB83BC8369817A818B819C81AA
:1002B0000E943D07DC01CB0128960FB6F894DEBF03
:1002C0000FBECDBFDF91CF910895CF93DF931F92E3
:1002D000CDB7DEB789838981813029F480E090E051
:1002E000A0E2B0E403C080E090E0DC01BC01CD01FD
:1002F0000E9409010F90DF91CF910895CF93DF9372
:100300001F92CDB7DEB78CE790E020E4FC0120839C
:100310008AE790E027E8FC0120838EE790E023E065
:10032000FC012083198205C00E94A10189818F5F91
:10033000898389818830C0F300000F90DF91CF91CD
:100340000895CF93DF93CDB7DEB780E00E946501BB
:10035000BC0180E091E00E94530081E00E946501B1
:10036000BC0188E091E00E9453000000DF91CF9132
:100370000895CF93DF93CDB7DEB788E091E00E9478
:10038000DB00DF91CF910895CF93DF93CDB7DEB738
:1003900080E091E00E94DB00DF91CF910895CF9340
:1003A000DF93CDB7DEB78AE290E02AE230E0F901D0
:1003B00020812062FC0120838AE290E02AE230E082
:1003C000F90120812061FC0120838BE290E02BE287
:1003D00030E0F90120812F7EFC0120838AE290E049
:1003E0002AE230E0F90120812B7FFC01208300000C
:1003F000DF91CF910895CF93DF931F92CDB7DEB7F2
:1004000089838981882351F08BE290E02BE230E0F0
:10041000F90120812061FC01208309C08BE290E07A
:100420002BE230E0F90120812F7EFC0120830000C7
:100430000F90DF91CF910895CF93DF9300D000D03C
:10044000CDB7DEB769837A838B839C8380915E010D
:1004500090915F01019690935F0180935E0180917E
:100460005E0190915F010A9708F447C010925F0106
:1004700010925E0180E191E00E940F060E94B90196
:100480000E942E0686E191E00E940F060E94C401A0
:100490000E942E068DE191E00E940F0620E030E0E0
:1004A0004AE754E469817A818B819C810E94230808
:1004B000DC01CB01BC01CD010E943607DC01CB0180
:1004C0000E942E0687E291E00E940F0688E490E0E9
:1004D000FC018081882F90E00E942E068FE291E03F
:1004E0000E940F060E945804882F90E00E942E065A
:1004F00087E391E00E940F0601C000000F900F906B
:100500000F900F90DF91CF9108950F931F93CF938A
:10051000DF93CDB7DEB728970FB6F894DEBF0FBED6
:10052000CDBF0E94A1010E940905DC01CB01898396
:100530009A83AB83BC830E943C05DC01CB018D8395
:100540009E83AF83B8872D813E814F8158858981F5
:100550009A81AB81BC81BC01CD010E94EC030E9459
:100560005804882339F066EF78E28CE19FE30E941B
:100570007E0414C089819A81AB81BC818C019D016C
:1005800040E050E060EA70E48AE591E00E941403E4
:10059000DC01CB01BC01CD010E947E0489819A81DE
:1005A000AB81BC81BC01CD010E941C0200002896D9
:1005B0000FB6F894DEBF0FBECDBFDF91CF911F9174
:1005C0000F910895CF93DF93CDB7DEB70E94CF018F
:1005D0000E94C5050E9461040E947E010E94DB0307
:1005E0008AE591E00E9400030E946B0578940E94C6
:1005F000B2058823E1F30E94BB050E948502F7CF74
:10060000CF93DF9300D0CDB7DEB79A8389838981FA
:100610009A81FC01108211821282138200000F90D5
:100620000F90DF91CF910895CF92DF92EF92FF92DA
:100630000F931F93CF93DF93CDB7DEB76A970FB6B3
:10064000F894DEBF0FBECDBF9A8B898B4B8B5C8B32
:100650006D8B7E8B0F8B188F298F3A8F2F89388D5A
:10066000498D5A8D6B897C898D899E890E9452069D
:10067000DC01CB018D839E83AF83B88720E030E01F
:1006800040E05FE36D817E818F8198850E94230821
:10069000DC01CB0189879A87AB87BC8789899A89D6
:1006A000FC01C080D180E280F38020E030E04AEF9E
:1006B00053E46D817E818F8198850E942308DC013F
:1006C000CB012FE632E143E85AE3BC01CD010E94A1
:1006D0002308DC01CB019C01AD01C701B6010E94DA
:1006E0005306DC01CB018D879E87AF87B88B2D85A4
:1006F0003E854F85588969857A858B859C850E94C2
:100700005306DC01CB019C01AD0166EF78E28CE180
:100710009FE30E945206DC01CB0189839A83AB835D
:10072000BC8326EF38E24CE15FE369817A818B81FB
:100730009C810E941E0818164CF486EF98E2ACE1EA
:10074000BFE389839A83AB83BC8320C02AE037ED63
:1007500043EA5EE369817A818B819C810E94BF06B6
:1007600088234CF48AE097EDA3EABEE389839A8359
:10077000AB83BC830BC029893A898D859E85AF8563
:10078000B889F90180839183A283B38389819A8197
:10079000AB81BC81BC01CD016A960FB6F894DEBF77
:1007A0000FBECDBFDF91CF911F910F91FF90EF90C2
:1007B000DF90CF900895CF93DF93CDB7DEB710923F
:1007C0006001109261011092620180E00E94FB01C1
:1007D0000000DF91CF910895CF93DF93CDB7DEB7BF
:1007E00029970FB6F894DEBF0FBECDBF6A837B8317
:1007F0008C839D832E833F83488759878091600136
:10080000882309F04BC020E030E040EB50E46A81DF
:100810007B818C819D810E941E08181654F4809162
:1008200061018F3F41F0809161018F5F8093610191
:1008300002C01092610120E030E040E251E46E819C
:100840007F81888599850E941E08181654F480912E
:1008500062018F3F41F0809162018F5F809362015E
:1008600002C01092620180916101833020F4809176
:100870006201833018F081E090E002C080E090E0F7
:1008800089838981817089838981882341F081E00E
:100890008093600181E00E94FB0101C00000299665
:1008A0000FB6F894DEBF0FBECDBFDF91CF91089594
:1008B000CF93DF93CDB7DEB780916001DF91CF9109
:1008C0000895CF93DF93CDB7DEB787E490E02FE9AB
:1008D000FC01208366EF78E28CE19FE30E947E04B6
:1008E00084E490E023E2FC01208385E490E029E0A9
:1008F000FC0120830000DF91CF9108950F931F9397
:10090000CF93DF9300D000D0CDB7DEB769837A8371
:100910008B839C832AE037ED43EA5EE369817A8129
:100920008B819C810E94BF06882344F48AE097ED66
:10093000A3EABEE389839A83AB83BC8326EF38E2C4
:100940004CE15FE369817A818B819C810E941E0862
:10095000181644F486EF98E2ACE1BFE389839A83EA
:10096000AB83BC8308E410E020E030E040E253E4D5
:1009700069817A818B819C810E942308DC01CB01F3
:1009800020E030E040E05FE3BC01CD010E9453066F
:10099000DC01CB01BC01CD010E943D07DC01CB0194
:1009A000F801808300000F900F900F900F90DF915F
:1009B000CF911F910F910895CF93DF9300D0CDB7C2
:1009C000DEB79A83898389819A81CC01A0E0B0E067
:1009D000BC01CD010E946C07DC01CB0120E030E0BE
:1009E00040EA50E4BC01CD010E942308DC01CB01A8
:1009F00020E030E040E854E4BC01CD010E94C40690
:100A0000DC01CB01BC01CD010F900F90DF91CF91A4
:100A10000895CF93DF93CDB7DEB728970FB6F8943C
:100A2000DEBF0FBECDBF0E94B9010E94DC04DC0115
:100A3000CB0189839A83AB83BC8380E090E0A0E004
:100A4000B0E48D839E83AF83B8872D813E814F8133
:100A5000588569817A818B819C810E942308DC0101
:100A6000CB01BC01CD0128960FB6F894DEBF0FBEB6
:100A7000CDBFDF91CF910895CF93DF9300D000D009
:100A8000CDB7DEB70E94C4010E94DC04DC01CB01BB
:100A900089839A83AB83BC8323EC35EF48E050E431
:100AA00069817A818B819C810E945206DC01CB0195
:100AB00026ED33EA40EF5EE3BC01CD010E94C4069F
:100AC000DC01CB01BC01CD010F900F900F900F9076
:100AD000DF91CF910895CF93DF93CDB7DEB780E854
:100AE00090E0FC01108284E890E0FC011182108209
:100AF00088E890E029EF30E0FC01318320838FE625
:100B000090E022E0FC01208381E890E02BE0FC01F2
:100B100020830000DF91CF9108951F920F920090E3
:100B20005F000F9211248F93CF93DF93CDB7DEB781
:100B300080916301882349F0809164018F3F29F0FF
:100B4000809164018F5F8093640181E080936301F1
:100B50000000DF91CF918F910F9000925F000F9076
:100B60001F901895CF93DF93CDB7DEB780916301C7
:100B7000DF91CF910895CF93DF93CDB7DEB7109279
:100B800063010000DF91CF910895CF93DF9300D0F0
:100B9000CDB7DEB787E690E09A83898385EC90E055
:100BA00029813A81232F3327FC01208384EC90E0B4
:100BB0002981FC01208381EC90E028E0FC01208366
:100BC00082EC90E026E0FC0120838AE290E02AE2B9
:100BD00030E0F90120812260FC01208300000F90A9
:100BE0000F90DF91CF910895CF93DF931F92CDB7F0
:100BF000DEB78983000080EC90E0FC018081882FC3
:100C000090E080729927892BB1F386EC90E02981DE
:100C1000FC01208300000F90DF91CF910895CF93C6
:100C2000DF9300D0CDB7DEB79A8389830BC089816B
:100C30009A819C012F5F3F4F3A832983FC01808179
:100C40000E94F40589819A81FC018081882379F7CB
:100C500000000F900F90DF91CF910895CF93DF9315
:100C6000CDB7DEB72A970FB6F894DEBF0FBECDBF63
:100C70009A87898789859A854AE050E09E012F5F8F
:100C80003F4FB9010E94B208CE0101960E940F06A3
:100C900000002A960FB6F894DEBF0FBECDBFDF91DD
:100CA000CF9108955058BB27AA270E946A060C943A
:100CB000E4070E94D60738F00E94DD0720F039F4DF
:100CC0009F3F19F426F40C94D3070EF4E095E7FB4C
:100CD0000C94CD07E92F0E94F50758F3BA17620765
:100CE00073078407950720F079F4A6F50C9417088C
:100CF0000EF4E0950B2EBA2FA02D0B01B901900137
:100D00000C01CA01A0011124FF27591B99F0593F7A
:100D100050F4503E68F11A16F040A22F232F342FC2
:100D20004427585FF3CF469537952795A795F04010
:100D30005395C9F77EF41F16BA0B620B730B840B25
:100D4000BAF09150A1F0FF0FBB1F661F771F881FDD
:100D5000C2F70EC0BA0F621F731F841F48F4879535
:100D600077956795B795F7959E3F08F0B0CF939527
:100D7000880F08F09927EE0F9795879508950E94A0
:100D8000A90708F481E008950E94D8060C94E407AE
:100D90000E94DD0758F00E94D60740F029F45F3F1B
:100DA00029F00C94CD0751110C9418080C94D3071A
:100DB0000E94F50768F39923B1F3552391F3951B2E
:100DC000550BBB27AA2762177307840738F09F5F6C
:100DD0005F4F220F331F441FAA1FA9F335D00E2ED9
:100DE0003AF0E0E832D091505040E695001CCAF746
:100DF0002BD0FE2F29D0660F771F881FBB1F261709
:100E000037074807AB07B0E809F0BB0B802DBF01DF
:100E1000FF2793585F4F3AF09E3F510578F00C94AE
:100E2000CD070C9418085F3FE4F3983ED4F3869501
:100E300077956795B795F7959F5FC9F7880F911DCF
:100E40009695879597F90895E1E0660F771F881FBB
:100E5000BB1F621773078407BA0720F0621B730B6E
:100E6000840BBA0BEE1F88F7E09508950E943D07AA
:100E70006894B1110C94180808950E94FD0788F039
:100E80009F5798F0B92F9927B751B0F0E1F0660F4E
:100E9000771F881F991F1AF0BA95C9F714C0B1308F
:100EA00091F00E941708B1E008950C941708672F7D
:100EB000782F8827B85F39F0B93FCCF386957795BE
:100EC0006795B395D9F73EF49095809570956195A7
:100ED0007F4F8F4F9F4F0895E89409C097FB3EF4D2
:100EE00090958095709561957F4F8F4F9F4F992377
:100EF000A9F0F92F96E9BB279395F69587957795F5
:100F00006795B795F111F8CFFAF4BB0F11F460FFB4
:100F10001BC06F5F7F4F8F4F9F4F16C0882311F00C
:100F200096E911C0772321F09EE8872F762F05C020
:100F3000662371F096E8862F70E060E02AF09A95BB
:100F4000660F771F881FDAF7880F9695879597F9B0
:100F50000895990F0008550FAA0BE0E8FEEF16164A
:100F60001706E807F907C0F012161306E407F5079D
:100F700098F0621B730B840B950B39F40A2661F011
:100F8000232B242B252B21F408950A2609F4A140B4
:100F9000A6958FEF811D811D089597F99F6780E8C1
:100FA00070E060E008959FEF80EC089500240A94BB
:100FB0001616170618060906089500240A94121634
:100FC0001306140605060895092E0394000C11F467
:100FD000882352F0BB0F40F4BF2B11F460FF04C014
:100FE0006F5F7F4F8F4F9F4F089557FD9058440F6D
:100FF000551F59F05F3F71F04795880F97FB991F78
:1010000061F09F3F79F08795089512161306140634
:10101000551FF2CF4695F1DF08C0161617061806C1
:10102000991FF1CF86957105610508940895E8949C
:10103000BB2766277727CB0197F908950E94A90758
:1010400008F48FEF08950E9436080C94E4070E947C
:10105000D60738F00E94DD0720F0952311F00C949C
:10106000CD070C94D30711240C9418080E94F5079F
:1010700070F3959FC1F3950F50E0551F629FF001EB
:10108000729FBB27F00DB11D639FAA27F00DB11D04
:10109000AA1F649F6627B00DA11D661F829F22278D
:1010A000B00DA11D621F739FB00DA11D621F839F14
:1010B000A00D611D221F749F3327A00D611D231FEA
:1010C000849F600D211D822F762F6A2F11249F5738
:1010D00050409AF0F1F088234AF0EE0FFF1FBB1F3B
:1010E000661F771F881F91505040A9F79E3F5105FA
:1010F00080F00C94CD070C9418085F3FE4F3983E01
:10110000D4F3869577956795B795F795E7959F5FA3
:10111000C1F7FE2B880F911D9695879597F9089535
:10112000A1E21A2EAA1BBB1BFD010DC0AA1FBB1FEB
:10113000EE1FFF1FA217B307E407F50720F0A21B5D
:10114000B30BE40BF50B661F771F881F991F1A94CA
:1011500069F760957095809590959B01AC01BD01F4
:10116000CF0108954532510520F4423010F00C941F
:10117000BD08FB011082CB010895BB274A3031F432
:10118000992322F4BDE2909581959F4F0C94C90854
:10119000BB27FB015527AA27880F991FAA1FA41751
:1011A00010F0A41B83955051B9F7A05DAA3308F045
:1011B000A95DA193009779F7B111B1931192CB0179
:1011C0000C94E208DC01FC01672F71917723E1F7B1
:1011D000329704C07C916D9370836291AE17BF0704
:0811E000C8F30895F894FFCF55
:1011E8003A010800000000004A0108000000000061
:1011F800567261773D0020497261773D0020566F35
:1012080075745F6D563D00204F435230423D0020BB
:0A1218006661756C743D000D0A005C
:00000001FF
